{
  "_format": "hh-sol-artifact-1",
  "contractName": "TradeProof",
  "sourceName": "contracts/TradeProof.sol",
  "abi": [
    {
      "anonymous": false,
      "inputs": [
        {
          "indexed": true,
          "internalType": "uint256",
          "name": "tradeId",
          "type": "uint256"
        },
        {
          "indexed": false,
          "internalType": "bytes32",
          "name": "tradeHash",
          "type": "bytes32"
        },
        {
          "indexed": false,
          "internalType": "uint256",
          "name": "timestamp",
          "type": "uint256"
        }
      ],
      "name": "TradeAnchored",
      "type": "event"
    },
    {
      "inputs": [
        {
          "internalType": "bytes32",
          "name": "_tradeHash",
          "type": "bytes32"
        }
      ],
      "name": "anchorTrade",
      "outputs": [],
      "stateMutability": "nonpayable",
      "type": "function"
    },
    {
      "inputs": [
        {
          "internalType": "uint256",
          "name": "_id",
          "type": "uint256"
        }
      ],
      "name": "getTrade",
      "outputs": [
        {
          "internalType": "bytes32",
          "name": "tradeHash",
          "type": "bytes32"
        },
        {
          "internalType": "uint256",
          "name": "timestamp",
          "type": "uint256"
        }
      ],
      "stateMutability": "view",
      "type": "function"
    },
    {
      "inputs": [],
      "name": "totalTrades",
      "outputs": [
        {
          "internalType": "uint256",
          "name": "",
          "type": "uint256"
        }
      ],
      "stateMutability": "view",
      "type": "function"
    },
    {
      "inputs": [
        {
          "internalType": "uint256",
          "name": "",
          "type": "uint256"
        }
      ],
      "name": "trades",
      "outputs": [
        {
          "internalType": "bytes32",
          "name": "tradeHash",
          "type": "bytes32"
        },
        {
          "internalType": "uint256",
          "name": "timestamp",
          "type": "uint256"
        }
      ],
      "stateMutability": "view",
      "type": "function"
    }
  ],
  "bytecode": "0x608060405234801561001057600080fd5b50610421806100206000396000f3fe608060405234801561001057600080fd5b506004361061004c5760003560e01c80631e6c598e146100515780632db25e0514610082578063e275c997146100b3578063f188370f146100d1575b600080fd5b61006b60048036038101906100669190610267565b6100ed565b6040516100799291906102bc565b60405180910390f35b61009c60048036038101906100979190610267565b610121565b6040516100aa9291906102bc565b60405180910390f35b6100bb61017c565b6040516100c891906102e5565b60405180910390f35b6100eb60048036038101906100e6919061032c565b610188565b005b600081815481106100fd57600080fd5b90600052602060002090600202016000915090508060000154908060010154905082565b600080600080848154811061013957610138610359565b5b9060005260206000209060020201604051806040016040529081600082015481526020016001820154815250509050806000015181602001519250925050915091565b60008080549050905090565b600060405180604001604052808381526020014281525090806001815401808255809150506001900390600052602060002090600202016000909190919091506000820151816000015560208201518160010155505060016000805490506101f091906103b7565b7fdc303d9c5afc6abd3e771f17aec0c065b8bb50f6e8661df5e008a5d1d69b376482426040516102219291906102bc565b60405180910390a250565b600080fd5b6000819050919050565b61024481610231565b811461024f57600080fd5b50565b6000813590506102618161023b565b92915050565b60006020828403121561027d5761027c61022c565b5b600061028b84828501610252565b91505092915050565b6000819050919050565b6102a781610294565b82525050565b6102b681610231565b82525050565b60006040820190506102d1600083018561029e565b6102de60208301846102ad565b9392505050565b60006020820190506102fa60008301846102ad565b92915050565b61030981610294565b811461031457600080fd5b50565b60008135905061032681610300565b92915050565b6000602082840312156103425761034161022c565b5b600061035084828501610317565b91505092915050565b7f4e487b7100000000000000000000000000000000000000000000000000000000600052603260045260246000fd5b7f4e487b7100000000000000000000000000000000000000000000000000000000600052601160045260246000fd5b60006103c282610231565b91506103cd83610231565b92508282039050818111156103e5576103e4610388565b5b9291505056fea26469706673582212209bb38b211b48f6761b509251e076ddb0854df164b2f0c2cc8ec4f79ea22e01b864736f6c63430008140033",
  "linkReferences": {},
  "deployedLinkReferences": {}
}